{
  "contractName": "CertificateValidation",
  "abi": [
    {
      "inputs": [],
      "stateMutability": "nonpayable",
      "type": "constructor"
    },
    {
      "anonymous": false,
      "inputs": [
        {
          "indexed": false,
          "internalType": "string",
          "name": "certificateHash",
          "type": "string"
        }
      ],
      "name": "CertificateAdded",
      "type": "event"
    },
    {
      "anonymous": false,
      "inputs": [
        {
          "indexed": false,
          "internalType": "string",
          "name": "certificateHash",
          "type": "string"
        }
      ],
      "name": "CertificateValidated",
      "type": "event"
    },
    {
      "inputs": [],
      "name": "owner",
      "outputs": [
        {
          "internalType": "address",
          "name": "",
          "type": "address"
        }
      ],
      "stateMutability": "view",
      "type": "function"
    },
    {
      "inputs": [
        {
          "internalType": "string",
          "name": "certificateHash",
          "type": "string"
        }
      ],
      "name": "addCertificate",
      "outputs": [],
      "stateMutability": "nonpayable",
      "type": "function"
    },
    {
      "inputs": [
        {
          "internalType": "string",
          "name": "certificateHash",
          "type": "string"
        }
      ],
      "name": "validateCertificate",
      "outputs": [
        {
          "internalType": "bool",
          "name": "",
          "type": "bool"
        }
      ],
      "stateMutability": "view",
      "type": "function"
    }
  ],
  "bytecode": "0x608060405234801561000f575f80fd5b50335f806101000a81548173ffffffffffffffffffffffffffffffffffffffff021916908373ffffffffffffffffffffffffffffffffffffffff1602179055506105cc8061005c5f395ff3fe608060405234801561000f575f80fd5b506004361061003f575f3560e01c80630a99e4f8146100435780632df68d721461005f5780638da5cb5b1461008f575b5f80fd5b61005d6004803603810190610058919061034c565b6100ad565b005b6100796004803603810190610074919061034c565b6101a9565b60405161008691906103ad565b60405180910390f35b6100976101dc565b6040516100a49190610405565b60405180910390f35b5f8054906101000a900473ffffffffffffffffffffffffffffffffffffffff1673ffffffffffffffffffffffffffffffffffffffff163373ffffffffffffffffffffffffffffffffffffffff161461013a576040517f08c379a00000000000000000000000000000000000000000000000000000000081526004016101319061049e565b60405180910390fd5b6001808260405161014b9190610528565b90815260200160405180910390205f6101000a81548160ff0219169083151502179055507f3ed6146dabe95f3b883594a244c0e64ec313b09dd0b41cbfd3affd1770ad0a9d8160405161019e9190610576565b60405180910390a150565b5f6001826040516101ba9190610528565b90815260200160405180910390205f9054906101000a900460ff169050919050565b5f8054906101000a900473ffffffffffffffffffffffffffffffffffffffff1681565b5f604051905090565b5f80fd5b5f80fd5b5f80fd5b5f80fd5b5f601f19601f8301169050919050565b7f4e487b71000000000000000000000000000000000000000000000000000000005f52604160045260245ffd5b61025e82610218565b810181811067ffffffffffffffff8211171561027d5761027c610228565b5b80604052505050565b5f61028f6101ff565b905061029b8282610255565b919050565b5f67ffffffffffffffff8211156102ba576102b9610228565b5b6102c382610218565b9050602081019050919050565b828183375f83830152505050565b5f6102f06102eb846102a0565b610286565b90508281526020810184848401111561030c5761030b610214565b5b6103178482856102d0565b509392505050565b5f82601f83011261033357610332610210565b5b81356103438482602086016102de565b91505092915050565b5f6020828403121561036157610360610208565b5b5f82013567ffffffffffffffff81111561037e5761037d61020c565b5b61038a8482850161031f565b91505092915050565b5f8115159050919050565b6103a781610393565b82525050565b5f6020820190506103c05f83018461039e565b92915050565b5f73ffffffffffffffffffffffffffffffffffffffff82169050919050565b5f6103ef826103c6565b9050919050565b6103ff816103e5565b82525050565b5f6020820190506104185f8301846103f6565b92915050565b5f82825260208201905092915050565b7f4f6e6c7920746865206f776e65722063616e2063616c6c20746869732066756e5f8201527f6374696f6e000000000000000000000000000000000000000000000000000000602082015250565b5f61048860258361041e565b91506104938261042e565b604082019050919050565b5f6020820190508181035f8301526104b58161047c565b9050919050565b5f81519050919050565b5f81905092915050565b5f5b838110156104ed5780820151818401526020810190506104d2565b5f8484015250505050565b5f610502826104bc565b61050c81856104c6565b935061051c8185602086016104d0565b80840191505092915050565b5f61053382846104f8565b915081905092915050565b5f610548826104bc565b610552818561041e565b93506105628185602086016104d0565b61056b81610218565b840191505092915050565b5f6020820190508181035f83015261058e818461053e565b90509291505056fea264697066735822122022803d7576eb187147ec7e6478737397383b65f3d8a4fc6bef8a0c39c995086c64736f6c63430008170033",
  "immutableReferences": {},
  "source": "// SPDX-License-Identifier: MIT\npragma solidity ^0.8.0;\n\ncontract CertificateValidation {\n    address public owner;\n    mapping(string => bool) private certificates;\n\n    event CertificateAdded(string certificateHash);\n    event CertificateValidated(string certificateHash);\n\n    modifier onlyOwner() {\n        require(msg.sender == owner, \"Only the owner can call this function\");\n        _;\n    }\n\n    constructor() {\n        owner = msg.sender;\n    }\n\n    function addCertificate(string memory certificateHash) public onlyOwner {\n        certificates[certificateHash] = true;\n        emit CertificateAdded(certificateHash);\n    }\n\n    function validateCertificate(string memory certificateHash) public view returns (bool) {\n        return certificates[certificateHash];\n    }\n}\n",
  "sourcePath": "/home/shri/code/CertificateValidation/contracts/CertificateValidation.sol",
  "compiler": {
    "name": "solc",
    "version": "0.8.23+commit.f704f362.Emscripten.clang"
  },
  "schemaVersion": "3.4.16",
  "updatedAt": "2023-11-28T02:27:54.955Z",
  "devdoc": {
    "kind": "dev",
    "methods": {},
    "version": 1
  },
  "userdoc": {
    "kind": "user",
    "methods": {},
    "version": 1
  }
}